:020000040800F2
:10000000F82C00209D010008D9210008091C0008D7
:10001000D5210008A90200089D2A00080000000060
:10002000000000000000000000000000DD230008C8
:10003000AD02000800000000DD210008E1230008F7
:10004000B7010008B7010008B7010008B7010008B0
:10005000B7010008B7010008B7010008B7010008A0
:10006000B7010008B7010008B7010008B701000890
:10007000B7010008B7010008B7010008B701000880
:10008000B7010008B7010008B7010008B701000870
:10009000B7010008B7010008B7010008B701000860
:1000A000B7010008B7010008B7010008B701000850
:1000B000B7010008BD240008B7010008B701000817
:1000C000B7010008B7010008B7010008B701000830
:1000D000B70100088D2A0008B7010008B701000821
:1000E000B7010008B7010008B7010008B701000810
:1000F000B7010008B7010008B7010008B701000800
:10010000B7010008B7010008B7010008B7010008EF
:10011000B7010008B7010008B7010008B7010008DF
:10012000B7010008B7010008B7010008B7010008CF
:10013000B7010008B7010008B7010008B7010008BF
:10014000B7010008B7010008B7010008B7010008AF
:10015000B7010008B7010008B7010008B70100089F
:10016000B7010008B7010008B7010008B70100088F
:10017000B7010008B7010008B7010008000000003F
:10018000B7010008B7010008DFF80CD000F07AF8DA
:1001900000480047852B0008F82C002006488047BF
:1001A00006480047FEE7FEE7FEE7FEE7FEE7FEE75C
:1001B000FEE7FEE7FEE7FEE7A92400088901000844
:1001C0002DE9F05F0546002092469B46884606468C
:1001D000814640241BE0284641464746224600F01F
:1001E00041F853465A46C01A914110D31146184659
:1001F000224600F028F82D1A67EB01084F462246E8
:100200000120002100F01FF817EB00094E41201ECD
:10021000A4F10104DFDC484631462A464346BDE8E6
:10022000F09FD2B201E000F8012B491EFBD27047CB
:100230000022F6E710B513460A4604461946FFF7B2
:10024000F0FF204610BD202A04DB203A00FA02F11C
:10025000002070479140C2F1200320FA03F31943B4
:1002600090407047202A04DB203A21FA02F0002156
:10027000704721FA02F3D040C2F1200291400843B6
:1002800019467047064C074D06E0E06840F0010350
:1002900094E8070098471034AC42F6D3FFF778FF94
:1002A000D02B0008F02B000800BFFEE7704772B6A5
:1002B00000BFFEE710B5002201B909E0012901D114
:1002C0000A0205E0022901D10A0201E04FF440725E
:1002D0000E4B1B6823F440730C4C236023461B68B1
:1002E0001343236023461B6823F0F803236023464F
:1002F0001B68022444EAC0042343044C23602346C1
:100300001B6843F48033236010BD0000103C0240A2
:100310001C48006800F40070B0B11A48006820F46E
:1003200000701849086000BF0846006840F400608B
:1003300008600846006820F40060086000BF0846B6
:10034000006840F4007008600E48006800F48060A7
:10035000B0B10C48006820F480600A49086000BF12
:100360000846006840F4805008600846006820F4A1
:100370008050086000BF0846006840F48060086054
:1003800070470000003C02400A4A126822F44072A2
:10039000084B1A601A46126842F004021A601A46A4
:1003A00012684FF4803343EA00231A43014B1A606A
:1003B00070470000103C0240074A126822F4407265
:1003C000054B1A601A4612681A601A46126842F003
:1003D00001021A6001707047103C024010B50D49CF
:1003E000096821F440710B4C21602146096841F4F1
:1003F000407121602146096841F0010121600260DD
:1004000000BF00BF00BFBFF36F8F00BF00BF00BFC2
:10041000436010BD103C0240084A126822F440724A
:10042000064B1A601A46126842F480721A601A4625
:10043000126842F001021A6001807047103C0240CD
:10044000084A126822F44072064B1A601A46126873
:1004500042F400721A601A46126842F001021A60F1
:1004600001607047103C02402348006800F0100013
:1004700040B12248C06940F010002049C8611020F6
:100480001D4908601C48006800F0200040B11B486E
:10049000C06940F008001949C86120201649086069
:1004A0001548006800F0400040B11448C06940F0B1
:1004B00004001249C86140200F4908600E480068D6
:1004C00000F0800040B10D48C06940F002000B49C7
:1004D000C8618020084908600748006800F00200F1
:1004E00040B10648C06940F020000449C8610220BC
:1004F00001490860704700000C3C0240D400002015
:1005000070B50446002500201449C86100F05AFA6D
:10051000054609E0601C38B124B100F053FA401BD5
:10052000A04201D9032070BD0D48006800F480305E
:100530000028EFD10A48006800F0010010B1012046
:10054000074908600648006800F0F20018B1FFF79C
:100550008BFF0120E7E70020E5E70000D400002042
:100560000C3C024070B50446A56D00F02BFA06461F
:1005700094F83500022808D08020606500BF002074
:1005800084F8340000BF012070BD2068006820F0AE
:100590001600216808602068406920F0800021680A
:1005A0004861206C08B9A06C28B12068006820F070
:1005B0000800216808602068006820F001002168B8
:1005C000086010E000F0FEF9801B05280BD9202000
:1005D0006065032084F8350000BF002084F83400F3
:1005E00000BF0320D0E72068006800F00100002869
:1005F000E8D194F85C103F208840A860012084F87E
:10060000350000BF002084F8340000BF00BFBBE706
:10061000014691F83500022803D08020486501206A
:100620007047052081F835000868006820F0010057
:100630000A6810600020F3E72DE9F04104460E46F9
:100640000127002500BF2548007E012802D1022095
:10065000BDE8F08101202149087600BF4CF25030FE
:10066000FFF74EFF0746002F31D1401E3060206853
:1006700001280FD1207C6168FFF786FE4CF25030D4
:10068000FFF73EFF07461648006820F004001449B3
:1006900008601AE0A56812E0217C2846FFF70AFEF0
:1006A0004CF25030FFF72CFF07460D48006820F051
:1006B000FA000B4908600FB1356005E06D1CD4E904
:1006C00002100844A842E7D800BFFFF721FE00BF90
:1006D00000200249087600BF3846B9E7D400002060
:1006E000103C02400348006840F0004001490860A7
:1006F00000207047103C02402DE9F04106460F46AD
:1007000014461D464FF0010800BF1F48007E012817
:1007100002D10220BDE8F08101201B49087600BF0C
:100720004CF25030FFF7ECFE8046B8F1000F23D1B9
:1007300026B9E1B23846FFF73FFE12E0012E04D1A0
:10074000A1B23846FFF768FE0BE0022E04D1214625
:100750003846FFF775FE04E022462B463846FFF781
:100760003DFE4CF25030FFF7CBFE80460748006854
:1007700020F001000549086000BF0020024908760A
:1007800000BF4046C6E70000D4000020103C0240F5
:1007900000200949096801F0004159B10749064A9A
:1007A0000C3A1160064911600349096801F00041E3
:1007B00001B1012070470000103C02402301674551
:1007C000AB89EFCDF8B502460B460025002400208A
:1007D0000021D6E0012606FA01F51E6806EA0504A6
:1007E000AC4274D11E7906F00306012E04D01E79A6
:1007F00006F00306022E13D190684F000326BE4078
:10080000B0434F00DE68BE40304390605068012620
:100810008E40B0431E79C6F300168E4030435060C0
:100820001E7906F00306032E09D0D0684F00032678
:10083000BE40B0434F009E68BE403043D0601E793A
:1008400006F00306022E13D1CF0802F1200656F857
:1008500027004E07F70E0F26BE40B0434F07FF0E8E
:100860001E69BE403043CF0802F1200646F827003B
:1008700010684F000326BE40B0431E7906F0030601
:100880004F00BE40304310605E6806F44036002ED4
:1008900076D000BF002600963C4E366846F480466F
:1008A0003A4F3E603E46366806F48046009600BFEA
:1008B00000BF374E8F0856F827008E07370F0F26D8
:1008C000BE40B043334EB24202D1002624E057E08E
:1008D000314EB24201D101261EE0304EB24201D16A
:1008E000022619E02E4EB24201D1032614E02D4E0D
:1008F000B24201D104260FE02B4EB24201D10526AF
:100900000AE02A4EB24201D1062605E0284EB24244
:1009100001D1072600E008268F073F0FBE40304375
:100920001B4E8F0846F82700224E3068A0435E68B1
:1009300006F4801606B120431E4E3060361D306826
:10094000A0435E6806F4001606B12043194E361D1A
:100950003060184E361F3068A0435E6806F40036DB
:1009600006B12043134E361F3060361F3068A04357
:100970005E6806F4803606B120430E4E083E3060B5
:10098000491C1029FFF426AFF8BD0000443802408E
:100990000838014000000240000402400008024004
:1009A000000C0240001002400014024000180240F7
:1009B000001C0240083C01400AB1816101E00B04C7
:1009C0008361704701480068704700000000002004
:1009D00003480068034909780844014908607047E2
:1009E000000000200800002010B50D48006840F409
:1009F00000700B4908600846006840F48060086099
:100A00000846006840F480700860032000F0A2F8F7
:100A10000F2000F007F800F02BF8002010BD0000B8
:100A2000003C024070B504460E4800784FF47A71DD
:100A3000B1FBF0F00C490968B1FBF0F5284600F075
:100A40002BFC08B1012070BD102C07D200222146DA
:100A5000501E00F041F80548046001E00120F2E773
:100A60000020F0E7080000200C0000200400002017
:100A700008B500BF002000900E48006840F4804098
:100A80000C4908600846006800F48040009000BFF0
:100A900000BF00BF00200090081F006840F0805099
:100AA000091F08600846006800F08050009000BFF1
:100AB00000BF08BD4438024001460846002809DB53
:100AC00000F01F0301229A4043099B0003F1E02339
:100AD000C3F8002100BF70472DE9F05F80460D4646
:100AE0001646002701F0E4FF074639462A463346FA
:100AF00001F00700C0F1070ABAF1040F02D94FF064
:100B0000040A01E0C0F1070AD14600F1040ABAF173
:100B1000070F02D24FF0000A01E0A0F1030AD44609
:100B20004FF0010A0AFA09FAAAF1010A0AEA020ACE
:100B30000AFA0CFA4FF0010B0BFA0CFBABF1010BAC
:100B40000BEA030B4AEA0B042146404601F0B8FFCA
:100B5000BDE8F09F00BF00F00702064B19684FF692
:100B6000FF031940044B0B4343EA0221014B196078
:100B700000BF70470CED00E00000FA0570B50446B8
:100B80000D460CB9012070BD5848006800F0070000
:100B9000A84209D255490D700846006800F00700C8
:100BA000A84201D00120EEE7207800F002000228E0
:100BB0001DD1207800F00400042805D14C480068BD
:100BC00040F4E0504A490860207800F00800082806
:100BD00005D14748006840F46040454908604448F2
:100BE000006820F0F000A1680843414908602078BF
:100BF00000F00100A8B36068012807D13C4808381C
:100C00000068C0F34040B8B90120BCE76068022822
:100C100002D06068032807D1354808380068C0F35F
:100C2000406048B90120AEE7314808380068C0F399
:100C3000400008B90120A6E72D48006820F0030015
:100C4000616808432A490860FFF7BCFE064609E0D0
:100C5000FFF7B8FE801B41F28831884202D9032099
:100C600091E707E02248006800F00C006168B0EBF3
:100C7000810FEDD11D48006800F00700A84209D996
:100C80001A490D700846006800F00700A84201D01C
:100C9000012078E7207800F00400042807D11448E8
:100CA000006820F4E050E1680843114908602078AA
:100CB00000F00800082808D10D48006820F46040C2
:100CC000216940EAC1000A49086000F03FF808497C
:100CD0000968C1F30311074A515CC840064908601E
:100CE00006480068FFF79EFE00204CE7003C0240EB
:100CF00008380240B82B00080C0000200400002037
:100D000001480068704700000C00002000B5FFF7A4
:100D1000F7FF04490968C1F38221034A515CC840C6
:100D200000BD000008380240C82B000800B5FFF7DE
:100D3000E7FF04490968C1F34231034A515CC840E6
:100D400000BD000008380240C82B00082DE9F0471C
:100D5000002400250026A1462548006800F00C006C
:100D600020B1042805D008283AD105E0DFF88490A6
:100D700039E0DFF8849036E01D48001F006800F07D
:100D80003F041B48001F006800F4800078B11A4837
:100D90001749091F0968C1F38811A0FB01700146BA
:100DA000224600233846FFF70BFA05460EE01148AD
:100DB0000F49091F0968C1F38811A0FB01700146A2
:100DC000224600233846FFF7FBF905460848001F76
:100DD0000068C0F30140401C4600B5FBF6F902E094
:100DE000DFF8109000BF00BF4846BDE8F087000064
:100DF000083802400024F40000127A00F8B50446D6
:100E00000CB90120F8BD207800F00100002874D052
:100E1000F948006800F00C0004280DD0F64800687E
:100E200000F00C00082813D1F348001F006800F4FC
:100E30008000B0F5800F0BD1EF4808380068C0F390
:100E40004040002859D06068002856D10120D9E7D9
:100E500000BF6068B0F5803F08D1E74808380068F7
:100E600040F48030E449083908601EE06068B0F55D
:100E7000A02F0DD1E0480838006840F48020DE49FA
:100E8000083908600846006840F4803008600CE0CB
:100E9000D9480838006820F48030D74908390860FC
:100EA0000846006820F48020086000BF606890B1A8
:100EB000FFF788FD054606E0FFF784FD401B642828
:100EC00001D903209EE7CC4808380068C0F34040B1
:100ED0000028F1D011E0FFF775FD054606E0FFF7A9
:100EE00071FD401B642801D903208BE7C2480838F4
:100EF0000068C0F340400028F1D1207800F00200E3
:100F000002285FD1BC48006800F00C0058B1BA4814
:100F1000006800F00C0008281CD1B748001F0068CA
:100F200000F48000B0B9B44808380068C0F340004D
:100F300020B1E068012801D0012063E7AE480838FD
:100F4000006820F0F800216940EAC100AA49083988
:100F5000086037E0E06800B30120A8490860FFF7A7
:100F600031FD054606E0FFF72DFD401B022801D9A3
:100F7000032047E7A04808380068C0F34000002875
:100F8000F1D09D480838006820F0F800216940EA57
:100F9000C10099490839086014E0002097490860A9
:100FA000FFF710FD054606E0FFF70CFD401B022889
:100FB00001D9032026E7904808380068C0F34000B4
:100FC0000028F1D1207800F0080008282CD16069B1
:100FD000A8B101208A490860FFF7F4FC054606E045
:100FE000FFF7F0FC401B022801D903200AE78248E2
:100FF0006C300068C0F340000028F1D014E00020FD
:101000007F490860FFF7DEFC054606E0FFF7DAFCE3
:10101000401B022801D90320F4E677486C300068B1
:10102000C0F340000028F1D1207800F0040004282B
:1010300070D1002770483830006800F0805090B9B7
:1010400000BF002000906C483830006840F08050AD
:101050006949383108600846006800F08050009007
:1010600000BF00BF01276748006800F48070B0B976
:101070006448006840F4807062490860FFF7A2FC91
:10108000054606E0FFF79EFC401B022801D903201D
:10109000B8E65C48006800F480700028F2D000BF19
:1010A000A068012808D154486830006840F0010069
:1010B0005149683108601DE0A06805280DD14E48EF
:1010C0006830006840F004004B4968310860084609
:1010D000006840F0010008600CE047486830006894
:1010E00020F001004449683108600846006820F09B
:1010F0000400086000BFA068A8B1FFF763FC0546C4
:1011000009E0FFF75FFC401B41F28831884202D9B9
:10111000032077E626E0384868300068C0F34000D6
:101120000028EED013E0FFF74DFC054608E0FFF77E
:1011300049FC401B41F28831884201D9032061E615
:101140002D4868300068C0F340000028EFD1012F1F
:1011500007D129483830006820F0805026493831BE
:10116000086000BFA069002845D02348006800F04F
:101170000C0008285DD0A069022845D100201F4935
:101180000866FFF71FFC054606E0FFF71BFC401B47
:10119000022801D9032035E6174808380068C0F353
:1011A00040600028F1D1D4E907010843616A40EAB0
:1011B00081110122A06AC2EB500041EA00412C20BB
:1011C000005D41EA00600C49091F086001200B49DD
:1011D0000866FFF7F7FB054606E0FFF7F3FB401B49
:1011E000022801D903200DE6034808380068C0F33F
:1011F00040600028F1D049E0083802400000474232
:10120000800E474200700040002021490866FFF729
:10121000D9FB054606E0FFF7D5FB401B022801D9A4
:101220000320EFE51B480068C0F340600028F2D1BE
:101230002CE0A069012800D1E4E51648001D0668ED
:10124000A069012820D006F48001E06981421BD109
:1012500006F03F01206A814216D147F6C070304047
:10126000616AB0EB811F0FD106F440310122A06A00
:10127000C2EB5000B1EB004F06D106F070612C209C
:10128000005DB1EB006F01D00120BBE50020B9E5A6
:10129000000047420038024070B504462546681EEB
:1012A000B0F1807F01D301200FE0681E4FF0E021F4
:1012B00048610F214FF0FF3001F002FC00204FF099
:1012C000E021886107200861002070BD70477047E9
:1012D00030B502460B4600BF92F83C00012801D110
:1012E000022030BD012082F83C0000BF022082F8BD
:1012F0003D00106844681068816824F07004186824
:10130000044310684460184D1068A8421BD0106850
:10131000B0F1804F17D0154D1068A84213D0144D6E
:101320001068A8420FD0134D1068A8420BD0124D80
:101330001068A84207D0114D1068A84203D0104D84
:101340001068A84205D121F0800158680143106857
:101350008160012082F83D0000BF002082F83C003F
:1013600000BF00BFBDE700000000014000040040D6
:1013700000080040000C0040000401400040014013
:101380000018004010B504460CB9012010BD94F8B7
:101390003D0028B9002084F83C00204600F026F8E3
:1013A000022084F83D00211D206801F08FF8012003
:1013B00084F8460000BF84F83E0001213F2001551B
:1013C000402001554120015500BF00BF012084F895
:1013D000420043200155442001554520015500BFDE
:1013E000012084F83D000020D0E7000038B5044615
:1013F0000E492068884217D100BF002000900C4899
:10140000006840F002000A4908600846006800F0E1
:101410000200009000BF00BF00220E211D20FFF738
:101420005BFB1D20FFF748FB38BD000000040040B7
:1014300040380240014691F83D00012801D00120CA
:101440007047022081F83D000868C06840F0010044
:101450000B68D8601A4B086898421BD00868B0F136
:10146000804F17D0174B0868984213D0164B086866
:1014700098420FD0154B086898420BD0144B08685F
:10148000984207D0134B0868984203D0124B086863
:1014900098420CD10868806800F00702062A0CD038
:1014A0000868006840F001000B68186005E00868F3
:1014B000006840F001000B6818600020C0E70000E1
:1014C000000001400004004000080040000C004003
:1014D0000004014000400140001800402DE9F041A7
:1014E00004460D46002700BF94F83C00012802D1B5
:1014F0000220BDE8F081012084F83C0000BF0220FA
:1015000084F83D002068866826F0770626F47F463A
:10151000206886602868502833D00CDC202850D002
:1015200004DC00284BD0102851D149E0302849D0A4
:1015300040284CD139E060282DD0702807D0B0F574
:10154000805F03D0B0F5005F41D10DE041E0D5E907
:1015500002136A68206801F025F82068866846F062
:1015600077062068866034E0D5E902136A6820684F
:1015700001F018F82068806840F480402168886095
:1015800027E0EA686968206801F020F850212068A7
:1015900001F013F81DE0EA686968206801F029F895
:1015A0006021206801F009F813E0EA6869682068A2
:1015B00001F00CF84021206800F0FFFF09E000BFB7
:1015C00000BF00BF2968206800F0F7FF01E0012795
:1015D00000BF00BF012084F83D0000BF002084F858
:1015E0003C0000BF384684E7704710B504462068C9
:1015F0000069C0F34000D8B12068C068C0F3400063
:10160000B0B16FF0020021680861012020772068E6
:10161000806900F0030018B12046FFF7E5FF05E000
:10162000204600F0ADF8204600F0ABF8002020770F
:1016300020680069C0F38000D8B12068C068C0F39A
:101640008000B0B16FF004002168086102202077AB
:101650002068806900F4407018B12046FFF7C4FF8D
:1016600005E0204600F08CF8204600F08AF80020C3
:10167000207720680069C0F3C000D8B12068C06836
:10168000C0F3C000B0B16FF0080021680861042009
:1016900020772068C06900F0030018B12046FFF7EA
:1016A000A3FF05E0204600F06BF8204600F069F843
:1016B0000020207720680069C0F30010D8B12068AE
:1016C000C068C0F30010B0B16FF01000216808616D
:1016D000082020772068C06900F4407018B12046C7
:1016E000FFF782FF05E0204600F04AF8204600F0B0
:1016F00048F8002020772068006900F0010058B108
:101700002068C06800F0010030B16FF0010021686E
:101710000861204600F036F820680069C0F3C01068
:1017200058B12068C068C0F3C01030B16FF08000BD
:10173000216808612046FFF7C9FD20680069C0F3F1
:10174000801058B12068C068C0F3801030B16FF0CD
:10175000400021680861204600F022F820680069F6
:10176000C0F3401058B12068C068C0F3401030B1D9
:101770006FF02000216808612046FFF7A8FD10BD2A
:10178000704770470449884205D10449096881F4CB
:101790000051024A116070474800002014080240BE
:1017A00070477047704700002DE9F84F04462068E5
:1017B00005682068C668206847694FF00009CA4676
:1017C00005F00F09B9F1000F0AD105F0200038B17A
:1017D00006F0200020B1204600F06FFFBDE8F88F32
:1017E000B9F1000F7CD007F0010018B906F4907031
:1017F000002875D005F0010030B106F4807018B1F2
:10180000206C40F00100206405F0040030B107F0C6
:10181000010018B1206C40F00200206405F00200C5
:1018200030B107F0010018B1206C40F004002064D2
:1018300005F0080048B106F0200010B907F00100DB
:1018400018B1206C40F008002064206C002846D0BD
:1018500005F0200028B106F0200010B1204600F06D
:101860002CFF20684069C0F3801A206C00F008004B
:1018700010B9BAF1000F2DD0204600F0D8FE206834
:10188000406900F04000402820D100BF00BF21681F
:10189000143151E8001F21F040002168143141E863
:1018A0000002002AF3D100BFA06B50B17548A16BB4
:1018B0000865A06BFEF7ACFE88B1A06B016D884790
:1018C0000DE02046FFF76EFF09E009E02046FFF734
:1018D00069FF04E02046FFF765FF002020647DE7F4
:1018E000206B012876D105F01000002872D006F098
:1018F00010000028FAD000BF002000902068006887
:10190000009020684068009000BF00BF20684069D8
:1019100000F0400040285ED1A06B006840681FFACC
:1019200080F8B8F1000F54D0A08D404551DDA4F8E7
:101930002E80A06BC069B0F5807F43D000BF00BF90
:1019400021680C3151E8001F21F4807021680C31AE
:1019500041E80002002AF3D100BF00BF00BF2168A8
:10196000143151E8001F21F001002168143141E8D1
:101970000002002AF3D100BF00BF00BF216814316C
:1019800051E8001F21F040002168143141E80002B5
:10199000002AF3D100BF202084F83E0000202063FD
:1019A00000BF00BF21680C3151E8001F21F010007A
:1019B00021680C3141E80002002AF3D100BFA06B7E
:1019C000FEF7D0FDA08DE28D801A81B22046FFF790
:1019D000E8FE03E740E0A08DE18D401A1FFA80F891
:1019E000E08DC0B3B8F1000F35D000BF00BF216853
:1019F0000C3151E8001F21F4907021680C3141E84E
:101A00000002002AF3D100BF00BF00BF21681431DB
:101A100051E8001F21F001002168143141E8000263
:101A2000002AF3D100BF202084F83E00002020636C
:101A300000BF00BF21680C3151E8001F21F01000E9
:101A400021680C3141E80002002AF3D100BF414671
:101A50002046FFF7A6FEC1E605F0800030B106F093
:101A6000800018B1204600F0E0FFB7E605F0400026
:101A700030B106F0400018B1204600F00EFEADE691
:101A800000BFABE61B26000810B504460CB90120C8
:101A900010BDA06900B100E000BF94F83D0028B976
:101AA000002084F83C00204600F028F8242084F828
:101AB0003D002068C06820F400502168C8602046BE
:101AC00000F078FE2068006920F4904021680861E9
:101AD0002068406920F02A00216848612068C068B9
:101AE00040F400502168C86000202064202084F861
:101AF0003D0084F83E000020CAE7000010B586B023
:101B00000446142101A8FEF793FB1F492068884270
:101B100038D100BF002000901C48006840F0100041
:101B20001A4908600846006800F01000009000BFE5
:101B300000BF00BF0020009014481438006840F037
:101B400001001249143908600846006800F00100DD
:101B5000009000BF00BF4FF4C060019002200290CF
:101B600000200390032004900720059001A9084855
:101B7000FEF728FE002202212520FEF7ADFF2520DA
:101B8000FEF79AFF06B010BD001001404438024035
:101B90000000024070B504460D46164694F83E001B
:101BA000202816D105B10EB9012070BD00BF94F8F0
:101BB0003C00012801D10220F7E7012084F83C0015
:101BC00000BF0020206332462946204600F008FF6F
:101BD000EBE70220E9E7000010B50446064920685B
:101BE000884204D1054A0649204600F005F92046FE
:101BF000FFF7DAFD10BD00000010014000000308EF
:101C00000000010870470000024800F07DF800BFA6
:101C1000FEE700009000002010B504462D48007833
:101C200028B92DA000F03CFF01202A4908702C485B
:101C3000007805281ED12B48406860B900202A4949
:101C400008600122294800F06FFB0222254928483C
:101C500000F06AFB09E001222249254800F050FB10
:101C600002222049224800F05FFB22A000F018FF6A
:101C700000F03AFF1C4800681A49096888420ED1F2
:101C800019480068401C50B11C480088B0F57A7FA4
:101C900005DD1348007810B9194800F09FF8124884
:101CA000006810490968884212D016480068401C34
:101CB00070B10848007801280AD110480088B0F5B2
:101CC0007A7F05DD0648007810B9204600F01CF840
:101CD00010BD000020000020494E424F4F540A0022
:101CE0003D000020100000201800002000800008A7
:101CF00004400008494E4F4B0A000000220000201B
:101D000000000308F410002006A000F0C9FE0748F8
:101D10000168074800F064FA0121064800F060FA03
:101D200000F0E2FE4552524F520A0000100000201F
:101D3000000003080040000810B504462068C06891
:101D400040F020002168C86001221A492046FFF7B0
:101D500021FFFEF71DFD4FF400721749174800F0F0
:101D6000CFFA01221649174800F0CAFA0122164993
:101D7000164800F0C5FA022215491248001D00F06D
:101D8000BFFAFEF7AFFC1048006860B91048406821
:101D900048B901200C49086001220C4800F0C4FA3F
:101DA000064800F01BF800200A4908700A4908801C
:101DB00010BD00003C000020F410002000000308CB
:101DC0001C000020004000081800002000800008CF
:101DD00010000020200000202200002070B50446E2
:101DE000206804490840B0F1005F02D166683546BA
:101DF000A84770BD0000FE2F70B506460C4615467C
:101E0000012278493046FFF7C5FE00207649088058
:101E10007648007830B973480078012802D17349B8
:101E200008701BE071480078012807D16D480078E0
:101E3000FF2803D102206D4908700FE06B4800783D
:101E4000022808D167480078022804D10320674996
:101E5000087000F049FE002064490870644800786A
:101E600038B9604800780F2803D101206049087014
:101E7000B7E05F480078012807D15A4800781F284A
:101E800003D102205A490870ABE059480078022873
:101E90000ED1544800782F280AD1032054490870E5
:101EA000002054490860544908605449087098E07B
:101EB0004F480078032835D14A4801784F480278C6
:101EC0000078401C4D4B18704D48815418460078DE
:101ED0000528CDD14A48C07800064949897840EAAA
:101EE00001404749497840EA0120454909780843BB
:101EF0004049086008460068424908604048007947
:101F000041490870084600783E4948603E480078DC
:101F100010B13E48046001E03C48056004203449AB
:101F200008705EE03248007804285AD132480068D0
:101F3000401C314908602B48017835480268006828
:101F4000401C334B1860334881542F48007820B32D
:101F500018460068B0F5805F0BD14FF480522D49D0
:101F60002A4800F05DF80020294908602AA000F006
:101F700097FD20480068401E1F490968884230D2FA
:101F8000234824490268214800F04AF822A000F0C2
:101F900087FD05201649087023E01D480068B0F54C
:101FA000805F0BD14FF480521A49184800F038F87E
:101FB00000201749086018A000F072FD0D48006865
:101FC000401E0D49096888420BD211481149026828
:101FD0000E4800F025F810A000F062FD052004492D
:101FE000087070BD3C000020220000203E00002050
:101FF0003D0000202C00002034000020380000208C
:10200000240000201000002039000020440000209F
:1020100030000020F41800204E4558540A000000FB
:102020002DE9F04704468846914600264546B246CB
:102030001FE0E8780706A87847EA0047687847EA8B
:102040000027287807432D1D3046711C8EB20E499B
:1020500041F82070B6F5806F09D100264FF48062F8
:10206000206800F061F9206800F5805020600AF1D6
:10207000040ACA45DDD326B132460349206800F080
:1020800053F9BDE8F0870000F400002000B587B0E8
:10209000142102A8FEF7CCF800BF002001901F48D1
:1020A000006840F004001D4908600846006800F020
:1020B0000400019000BF00BF00BF0020019008464F
:1020C000006840F0800008600846006800F080006A
:1020D000019000BF00BF00BF0020019008460068CB
:1020E00040F0010008600846006800F0010001901F
:1020F00000BF00BF012251030948FEF75DFC4FF409
:10210000005002900120039000200490059002A945
:102110000348FEF757FB07B000BD0000303802400F
:102120000008024000B587B000200390049005909D
:1021300006900190029017481749086042F26B0020
:10214000486000211448816040F2CF71C1600021D5
:10215000016180218161FFF715F908B1FEF7A7F849
:102160004FF48050039003A90B48FFF7B7F908B16B
:10217000FEF79DF800200190029001A90648FFF7A4
:10218000A7F808B1FEF793F80348FFF753F907B033
:1021900000BD0000000400404800002010B50B48BE
:1021A0000B4908604FF4E130486000210848816025
:1021B000C16001610C21416100218161C161FFF7B2
:1021C00063FC08B1FEF773F810BD00000010014079
:1021D0009000002000BFFEE700BFFEE77047000050
:1021E000F0B587B004460E46002001900025002778
:1021F000B4F1006F02D304F0030010B1012007B066
:10220000F0BDFEF7C5FA254604EB86071348854264
:102210001DD219E0284600F083F8401C78B1002058
:102220000290284600F01CF804900120059002203E
:10223000069001A902A8FEF7FFF908B106E02D1DDE
:102240004CF25030FEF75CF9BD42E3D300BFFEF71D
:1022500049FA4CF25030FEF753F9D0E70000FF1F67
:1022600001461C48814201D2002070471A48814231
:1022700001D20120F9E71948814201D20220F4E796
:102280001748814201D20320EFE71648814201D26C
:102290000420EAE71448814201D20520E5E713480B
:1022A000814201D20620E0E71148814201D2072095
:1022B000DBE71048814201D20820D6E70E48814270
:1022C00001D20920D1E70D48814201D20A20CCE792
:1022D0000B20CAE7004000080080000800C000088A
:1022E00000000108000002080000040800000608C1
:1022F0000000080800000A0800000C0800000E0892
:1023000030B503460C461546002206E0184600F09C
:1023100007F844F822001B1D521CAA42F6D330BD18
:1023200001460868704700002DE9F04387B0044675
:102330000E4617464FF00009002001900025804608
:10234000B4F1006F02D304F0030010B107B0BDE890
:10235000F083FEF71DFA254604EB87081E488542E8
:102360001DD219E02846FFF7DBFF401C78B10020A2
:1023700002902846FFF774FF049001200590022088
:10238000069001A902A8FEF757F908B106E02D1D35
:102390004CF25030FEF7B4F84545E3D300BF4CF2A1
:1023A0005030FEF7ADF88146B9F1000F0FD10BE0C8
:1023B000D6F800C06246002321460220FEF79CF9B1
:1023C00000B103E0241D361D4445F1D300BFFEF7E4
:1023D00089F900BFBAE700000000FF1F7047000046
:1023E00010B504480088401C02490880FEF7F0FA46
:1023F00010BD00002200002000B593B0302107A8D6
:10240000FDF716FF142102A8FDF712FF00BF002000
:1024100001902348006840F0805021490860084638
:10242000006800F08050019000BF00BF00BF002096
:1024300001901C48006840F480401A490860084632
:10244000006800F48040019000BF00BF01200790A9
:102450000004089002200D9041050E9104210F9177
:10246000A8211091022111910421129107A8FEF7D1
:10247000C5FC08B1FDF71BFF0F200290022003905E
:10248000002004904FF4A05005900690052102A86A
:10249000FEF774FB08B1FDF70AFF13B000BD0000A2
:1024A00040380240007000400348006840F470006B
:1024B000014908607047000088ED00E010B502484F
:1024C000FFF793F810BD00004800002010B5026827
:1024D000294B98420ED0B0F1804F0BD0274B984239
:1024E00008D0274B984205D0264B984202D0264B65
:1024F000984203D122F070024B681A431E4B984257
:1025000020D0B0F1804F1DD01C4B98421AD01C4BEC
:10251000984217D01B4B984214D01B4B984211D0B5
:102520001A4B98420ED01A4B98420BD0194B984236
:1025300008D0194B984205D0184B984202D0184B3E
:10254000984203D122F44072CB681A4322F08003F0
:102550004C6943EA040202608B68C3620B688362C1
:10256000054B984202D0084B984201D10B69036396
:102570000123436110BD0000000001400004004041
:1025800000080040000C00400004014000400140F1
:10259000004401400048014000180040001C004079
:1025A0000020004030B50C46816821F47F4142EAAA
:1025B000032525432943816030BD0A46816821F007
:1025C000700142F0070319438160704730B50B4634
:1025D0001446026A056A25F001050562816921F049
:1025E000F00141EA041122F00A021A4381610262F9
:1025F00030BD30B50B461446056A25F0100505625E
:102600008169026A21F4704141EA043122F0A0029A
:1026100042EA03128161026230BD70B50546AC6BBF
:102620000020E085E0842046FFF7BCF870BD00BFC5
:1026300000BF02680C3252E8002F22F49071026849
:102640000C3242E80013002BF3D100BF00BF00BFE3
:102650000268143252E8002F22F00101026814329D
:1026600042E80013002BF3D100BF016B01290ED10A
:1026700000BF00BF02680C3252E8002F22F01001A8
:1026800002680C3242E80013002BF3D100BF202176
:1026900080F83E1000210163704710B504462068A1
:1026A000C06820F040002168C860202084F83D0008
:1026B0002046FFF7A7FA002010BDF8B5044694F8AD
:1026C0003E00222873D1A068B0F5805F0CD120694C
:1026D00050B90025A66A20684068C0F30800308021
:1026E000A06A801CA06215E0A56A0026A068B0F56B
:1026F000805F03D0A06828B9206918B920684068B5
:10270000287004E02068406800F07F002870A06A0C
:10271000401CA062E08D401E80B2E085002844D1BC
:102720002068C06820F020002168C8602068C06868
:1027300020F480702168C8602068406920F00100A2
:1027400021684861202084F83E00206B012826D1B2
:102750000020206300BF00BF21680C3151E8001F3A
:1027600021F0100021680C3141E80002002AF3D169
:1027700000BF2068006800F0100010280AD100BFD8
:102780000020009020680068009020684068009059
:1027900000BF00BFA18D2046FFF703F802E02046EE
:1027A000FFF71AFA0020F8BD01E00020FBE7022045
:1027B000F9E700002DE9F84F04462068006920F48D
:1027C0004050E1680843216808612169A068084316
:1027D00061690843E169084300902068C06849F2D4
:1027E0000C618843009908432168C86020684069EB
:1027F00020F44070A1690843216848617649206847
:10280000884203D075492068884203D1FEF78EFACA
:10281000814602E0FEF77AFA8146E069B0F5004FA2
:102820006CD102206168A0FB015003461920A9FB6E
:10283000007001462A463846FDF7C2FC6421B0FB11
:10284000F1F04FEA001A02206168A0FB01510B462B
:102850001920A9FB00712A463846FDF7B1FC8346D2
:1028600002206168A0FB015003461920A9FB0071FA
:102870002A463846FDF7A4FC6421B0FBF1F000EBDA
:10288000C00101EB0010ABEB8000322101EBC00076
:102890006421B0FBF1F000F0F8000AEB400A0220DE
:1028A0006168A0FB015003461920A9FB0070014696
:1028B0002A463846FDF784FC834602206168A0FB67
:1028C000015003461920A9FB00712A463846FDF73E
:1028D00077FC6421B0FBF1F000EBC00101EB0010CC
:1028E000ABEB8000322101EBC0006421B0FBF1F0C2
:1028F00000F007005044216888606AE004206168A5
:10290000A0FB015003461920A9FB007001462A468E
:102910003846FDF755FC824604206168A0FB015053
:1029200003461920A9FB007001462A463846FDF7E8
:1029300047FC6421B0FBF1F000EBC00101EB00109B
:10294000AAEB8000322101EB00106421B0FBF1F012
:1029500000F0F00A04206168A0FB01700346192012
:10296000A9FB00513A462846FDF72AFC6421B0FB3A
:10297000F1F00AEB001A04206168A0FB01510B463C
:102980001920A9FB00712A463846FDF719FC834639
:1029900004206168A0FB015003461920A9FB0070C8
:1029A00001462A463846FDF70BFC6421B0FBF1F0E6
:1029B00000EBC00101EB0010ABEB8000322101EB1A
:1029C00000106421B0FBF1F000F00F0050442168CA
:1029D0008860BDE8F88F000000100140001401403D
:1029E00010B5034699629A85DA8500201864222082
:1029F00083F83E0000BF002083F83C0000BF186948
:102A000028B11868C06840F480701C68E0601868DD
:102A1000406940F001001C6860611868C06840F0BF
:102A200020001C68E060002010BD014691F83D00C8
:102A3000212828D18868B0F5805F0BD1086948B992
:102A40000A6A1088C0F308000B685860086A801C86
:102A5000086205E00B6A581C086218780B68586019
:102A6000C88C401E80B2C88458B90868C06820F07D
:102A700080000B68D8600868C06840F040000B68B0
:102A8000D860002070470220FCE7000010B5024823
:102A9000FEF78AFE10BD00009000002000BFFEE798
:102AA000014A024900F04FB8692B0008400000209D
:102AB00002480068C0F30220704700000CED00E0FF
:102AC00010B5002804DB0A07130E054A135406E06C
:102AD0000A07140E034A00F00F031B1FD45410BD45
:102AE00000E400E018ED00E000BF00BF00BFBFF34E
:102AF0004F8F00BF00BF00BF0948006800F4E060CE
:102B000008490843001D0649086000BF00BF00BF18
:102B1000BFF34F8F00BF00BF00BF00BF00BFFDE786
:102B20000CED00E00000FA0502E008C8121F08C121
:102B3000002AFAD170477047002001E001C1121F3E
:102B4000002AFBD170472DE9F04116460F46044696
:102B5000002503E03946B047641C6D1C207800282E
:102B6000F8D12846BDE8F08100BF054A126802F09E
:102B70004002002AF9D0C2B2014B5A6070470000EF
:102B8000001001404FF0006009490860FDF72CFF7C
:102B9000FFF732FCFFF77AFAFFF700FBFFF7C2FA04
:102BA0000448FFF7C9F802E00248FFF735F8FBE7F1
:102BB00008ED00E090000020000000000000000090
:102BC00001020304060708090000000001020304D3
:102BD000F02B00080000002048000000282B00080F
:102BE000382C000848000020B02C0000382B0008CA
:102BF0000000000010000000010000000024F400AC
:102C000000000000000000000000000000000000C4
:102C100000000000000000000000000000000000B4
:102C200000000000000000000000000000000000A4
:082C300000000000000000009C
:040000050800018965
:00000001FF
