:020000040803EF
:10000000D00400209D0103081319030827170308D3
:1000100011190308A9020308791F03080000000052
:10002000000000000000000000000000151B030895
:10003000AB0203080000000015190308171B030892
:10004000B7010308B7010308B7010308B7010308A4
:10005000B7010308B7010308B7010308B701030894
:10006000B7010308B7010308B7010308B701030884
:10007000B7010308B7010308B7010308B701030874
:10008000B7010308B7010308B7010308B701030864
:10009000B7010308B7010308B7010308B701030854
:1000A000B7010308B7010308B7010308B701030844
:1000B000B7010308C91B0308B7010308B701030808
:1000C000B7010308B7010308B7010308B701030824
:1000D000B70103086D1F0308B7010308B701030840
:1000E000B7010308B7010308B7010308B701030804
:1000F000B7010308B7010308B7010308B7010308F4
:10010000B7010308B7010308B7010308B7010308E3
:10011000B7010308B7010308B7010308B7010308D3
:10012000B7010308B7010308B7010308B7010308C3
:10013000B7010308B7010308B7010308B7010308B3
:10014000B7010308B7010308B7010308B7010308A3
:10015000B7010308B7010308B7010308B701030893
:10016000B7010308B7010308B7010308B701030883
:10017000B7010308B7010308B70103080000000036
:10018000B7010308B7010308DFF80CD000F07AF8D4
:100190000048004725200308D00400200648804777
:1001A00006480047FEE7FEE7FEE7FEE7FEE7FEE75C
:1001B000FEE7FEE7FEE7FEE7AD1B03088901030843
:1001C0002DE9F05F0546002092469B46884606468C
:1001D000814640241BE0284641464746224600F01F
:1001E00041F853465A46C01A914110D31146184659
:1001F000224600F028F82D1A67EB01084F462246E8
:100200000120002100F01FF817EB00094E41201ECD
:10021000A4F10104DFDC484631462A464346BDE8E6
:10022000F09FD2B201E000F8012B491EFBD27047CB
:100230000022F6E710B513460A4604461946FFF7B2
:10024000F0FF204610BD202A04DB203A00FA02F11C
:10025000002070479140C2F1200320FA03F31943B4
:1002600090407047202A04DB203A21FA02F0002156
:10027000704721FA02F3D040C2F1200291400843B6
:1002800019467047064C074D06E0E06840F0010350
:1002900094E8070098471034AC42F6D3FFF778FF94
:1002A00084200308A4200308FEE7704772B6FEE727
:1002B000002229B101291AD002291BD04FF4407223
:1002C0000E490B6823F440730B600B6813430B60FB
:1002D0000A6822F0F8020A600A68022303EBC000F1
:1002E00002430A60086840F48030086070474FF4A9
:1002F0008072E5E74FF40072E2E70000103C024034
:100300001348016889050FD5016821F40071016067
:10031000016841F400610160016821F4006101603D
:10032000016841F400710160016849050FD5016859
:1003300021F480610160016841F48051016001682D
:1003400021F480510160016841F4806101607047CF
:10035000003C024008490A6822F440720A600A68B8
:1003600042F004020A600A684FF4803343EA002036
:1003700002430A6070470000103C0240064A1368BE
:1003800023F44073136013681360136843F0010390
:100390001360017070470000103C0240094910B51D
:1003A0000C6824F440740C600C6844F440740C60D5
:1003B0000C6844F001040C600260BFF36F8F43606F
:1003C00010BD0000103C0240074A136823F440733C
:1003D0001360136843F480731360136843F00103E0
:1003E0001360018070470000103C0240074A136808
:1003F00023F440731360136843F4007313601368AD
:1004000043F001031360016070470000103C02409C
:1004100017490868C206174805D5C26942F010029C
:10042000C26110220A600A68920605D5C26942F0CC
:100430000802C26120220A600A68520605D5C26914
:1004400042F00402C26140220A600A68120605D521
:10045000C26942F00202C26180220A600A68920701
:1004600005D5C26942F02002C261022008607047CF
:100470000C3C0240AC00002070B51149044600203D
:10048000C86100F025FA06460E4D09E0601C07D051
:1004900024B100F01DFA801BA04201D9032070BDD9
:1004A0002868C003F2D42868C00701D00120286062
:1004B000286810F0F200F2D0FFF7AAFF012070BD0B
:1004C000AC0000200C3C02402DE9F0410446876D51
:1004D00000F0FEF9064694F835000025022806D003
:1004E0008020606584F834500120BDE8F0812068E8
:1004F000016821F0160101602068416921F0800146
:100500004161206C08B9A06C20B12068016821F01D
:10051000080101602068016821F0010101600CE020
:1005200000F0D6F9801B052807D92020606503203C
:1005300084F8350084F83450D7E720680068C00795
:10054000EED194F85C103F208840B860012084F818
:10055000350084F834500020C7E790F835100229A0
:1005600003D08021416501207047052180F83510B6
:100570000068016821F0010101600020704700005F
:100580002DE9F047044622480F46017E01290AD092
:100590000121804601764CF250394846FFF76CFF46
:1005A000020003D02FE00220BDE8F0874FF0FF30BB
:1005B00038602068174D012801D0A6681CE0207C17
:1005C0006168FFF7C7FE4846FFF756FF02462868F6
:1005D00020F00400286014E0217C3046FFF768FE1C
:1005E0004846FFF749FF0200286820F0FA0028601B
:1005F00001D03E6005E0761CD4E902100844B04208
:10060000EAD8FFF77DFE002188F818101046CBE7E6
:10061000AC000020103C02400348016841F000415A
:100620000160002070470000103C02402DE9F047B7
:100630001B4E05461446307E1F468946012808D0C9
:10064000012030764CF250384046FFF715FF18B1C4
:1006500014E00220BDE8F0879DB1012D16D0022DD7
:1006600019D022463B464846FFF798FE4046FFF722
:1006700003FF0C490A6822F001020A60002131766A
:10068000E8E7E1B24846FFF779FEEFE7A1B2484656
:10069000FFF79AFEEAE721464846FFF7A7FEE5E79F
:1006A000AC000020103C0240074900200A68002AE4
:1006B00009DA054A054B0C3A1360054B13600968CB
:1006C000002900DA01207047103C024023016745F1
:1006D000AB89EFCD2DE9F84FDFF8BCA10022012551
:1006E00003264FF00F090AF1040BAAF1040E00BF14
:1006F0000B6805FA02F42340A34270D10F7907F08A
:100700000307012F01D0022F16D187684FEA420854
:1007100006FA08FC27EA0C07D1F80CC00CFA08FC12
:100720004CEA070CC0F808C04768A7430C79C4F32B
:10073000001494403C4344600C79E443A4070AD07D
:10074000C4684FEA420C06FA0CF7BC438F6807FAFC
:100750000CF72743C7600C7904F00304022C12D174
:10076000D40800EB840CDCF820405707FF0E09FA90
:1007700007F824EA0804D1F8108008FA07F848EAD4
:100780000408CCF8208004684FEA420C06FA0CF703
:10079000BC430F7907F0030707FA0CF727430760FC
:1007A0004C6814F4403F70D03C4C276847F48047B5
:1007B0002760246822F0030704F480440094384C36
:1007C00007EB040CDCF8084897074FEA177809FA9A
:1007D00008F7BC43334FB84202D1002724E054E06D
:1007E000314FB84201D101271EE0304FB84201D14C
:1007F000022719E02E4FB84201D1032714E02D4FF4
:10080000B84201D104270FE02B4FB84201D1052790
:100810000AE02A4FB84201D1062705E0284FB84226
:1008200001D1072700E0082707FA08F72743CCF88B
:100830000878DAF800405746D1F804C09C435FEAD4
:10084000CC2C00D51C433C60DBF800405F46D1F85F
:1008500004C09C435FEA8C2C00D51C433C60DEF84E
:1008600000407746D1F804C09C435FEA8C3C00D539
:100870001C433C60084F083F3C68D1F804C09C43CF
:100880005FEACC3C00D51C433C60521C102AFFF4AC
:100890002FAFBDE8F88F0000083C0140443802400B
:1008A0000030014000000240000402400008024005
:1008B000000C0240001002400014024000180240E8
:1008C000001C02400AB1816170470904FBE7000087
:1008D00001488068704700000000002002488168DD
:1008E0000278114481607047000000200B4810B569
:1008F000016841F400710160016841F480610160A8
:10090000016841F480710160032000F06FF800205D
:1009100000F006F800F024F8002010BD003C024072
:1009200070B50D4D04464FF47A712878B1FBF0F0A4
:100930000A490968B1FBF0F000F00AFB48B9102C35
:1009400007D200222146501E00F030F800206C60D3
:1009500070BD012070BD0000000000200C000020D0
:100960000A4808B5016841F480410160006800F45C
:10097000804000900548001F016841F080510160EF
:10098000006800F08050009008BD0000443802402C
:10099000002809DB00F01F0201219140400980007E
:1009A00000F1E020C0F8001170470000F0B40E4BD9
:1009B0001B680C46C3F30223C3F10705042D00D9BD
:1009C0000425191D072901D2002300E0DB1E0126A2
:1009D00006FA05F1491E214099409E40761E1640B8
:1009E0003143F0BC01F0D2BA0CED00E0064900F052
:1009F000070208684FF6FF03184040EA0220034A46
:100A000010430860704700000CED00E00000FA059C
:100A10002DE9F0470E46050065D0DFF81481D8F8BF
:100A20000000F7B200F00700B04207D288F800706B
:100A3000D8F8000000F00700B04254D128683D4CBF
:100A4000810712D5400703D5206840F4E0502060AC
:100A50002878000703D5206840F4604020602068B3
:100A6000A96820F0F000084320602878C0072DD046
:100A7000304968680839012812D0022813D00328A9
:100A800011D00968890700292DDA216821F00301B6
:100A900001432160FFF71CFF814641F2883A0EE0D6
:100AA00009688903EFE709688901ECE7FFF710FFA0
:100AB000A0EB0901514502D90320BDE8F087206869
:100AC000696800F00C00B0EB810FEFD1D8F800108E
:100AD000404601F00701B14207D90770006800F0F5
:100AE0000700B04201D00120E7E72878400705D58C
:100AF0002068E96820F4E050084320602878000767
:100B000006D52068296920F4604040EAC1002060D1
:100B100000F038F82168084AC1F30311515CC8405D
:100B20000649086006480068FFF7FAFE0020C4E79F
:100B3000003C0240083802406C2003080C000020F2
:100B4000040000200448054900680968044AC1F30C
:100B50008221515CC84070470C00002008380240D8
:100B60007C2003080448054900680968044AC1F369
:100B70004231515CC84070470C00002008380240E8
:100B80007C200308154810B5006810F00C021448CA
:100B900013D04110042A0FD0082A0ED10F4C241F65
:100BA0002268236802F03F025B0207D52068C0F389
:100BB0008810A0FB010106E0084610BD2168C1F3C2
:100BC0008811A1FB00010023FFF7FAFA2168C1F3A5
:100BD0000141491C4900B0FBF1F010BD083802404A
:100BE0000024F4002DE9F84F04006ED02078DFF8DF
:100BF0004C93C007A9F104054AD009F1040001682B
:100C0000C1F38101012908D00068C0F381000228E6
:100C10000AD1D9F80000400206D52868800337D5EC
:100C200060680028E1D033E06068B0F5803F10D004
:100C3000B0F5A02F286810D020F4803028602868F4
:100C400020F4802028606068A8B1FFF741FE0646C6
:100C50000DE0286840F48030F4E740F480202860FC
:100C6000F7E700BFFFF734FE801B642873D82868BD
:100C70008003F7D50CE0FFF72BFE064605E000BF2A
:100C8000FFF726FE801B6428F0D828688003F7D47D
:100C90002078DFF8AC8280074FF0000A3ED5A748E5
:100CA000001D016811F00C0F08D00068C0F381002E
:100CB00002280BD1D9F80000400207D42868800729
:100CC00016D5E068012800D112E033E1E068B8B140
:100CD0000120C8F80000FFF7FBFD064605E000BF55
:100CE000FFF7F6FD801B0228C0D828688007F7D5DB
:100CF0002868216920F0F80040EAC10028600DE072
:100D0000C8F800A0FFF7E4FD064604E0FFF7E0FDA9
:100D1000801B02281FD828688007F7D42078000796
:100D200022D5864F87486169703771B10121016012
:100D3000FFF7CEFD064604E0FFF7CAFD801B022840
:100D400009D838688007F7D50EE0C0F800A0FFF793
:100D5000BFFD064605E082E0FFF7BAFD801B0228D2
:100D60007DD838688007F7D42078400768D5DFF849
:100D7000CCB100270BF13C0BDBF80000C0000BD41A
:100D8000DBF8001041F08051CBF80010DBF80000D8
:100D9000012700F0805000906B4E3068C00510D4E1
:100DA000306840F480703060FFF792FD009005E0FD
:100DB000FFF78EFD0099401A022850D83068C00510
:100DC000F6D55E4EA0686C3601280FD00528306835
:100DD00010D020F001003060306820F00400306056
:100DE000A068B8B1FFF774FD00900FE0306840F0E4
:100DF0000100F4E740F004003060F7E7FFF768FD1A
:100E00000099411A41F28830814266D830688007E3
:100E1000F4D50EE0FFF75CFD009007E0FFF758FD0A
:100E20000099411A41F28830814256D830688007D3
:100E3000F4D42FB1DBF8001021F08051CBF8001072
:100E4000A069C8B33D49091D0968C1F381010229A0
:100E50004AD00228504607D0C8F8600000E03CE0C5
:100E6000FFF736FD04463BE04746C8F86000FFF751
:100E70002FFD064605E000BFFFF72AFD801B022874
:100E80002BD828688001F7D4D4E907010843A16A68
:100E90002E4A490802EB0141626A41EA8211084385
:100EA00094F82C1040EA0161C9F80010012038665E
:100EB000FFF70EFD044606E03EE000BFFFF708FD29
:100EC000001B022809D828688001F7D534E000BF4C
:100ED000FFF7FEFC001B022802D90320BDE8F88FB3
:100EE00028688001F4D427E00128F7D0D9F8000061
:100EF000E26900F4800191421CD1226A00F03F01B6
:100F0000914217D147F6C071626A0140B1EB821F6E
:100F100010D1A26A4FF0FF3300F4403103EB5202CC
:100F2000B1EB024F06D194F82C1000F07060B0EBDA
:100F3000016F01D00120D1E70020CFE70438024043
:100F400000004742800E4742007000400000FFFF53
:100F500010B5401EB0F1807F01D3012010BD4FF0CD
:100F6000E02460610F21601701F010F80020A061FB
:100F700007202061002010BD7047704770B590F8C1
:100F80003C20012A32D0012480F83C40022280F823
:100F90003D2003685A689D6822F070060A68324353
:100FA0005A60134B02689A4214D0B2F1804F11D0AC
:100FB000104B9A420ED0104B9A420BD00F4B9A42D4
:100FC00008D00F4B9A4205D00E4B9A4202D00E4BDE
:100FD0009A4204D1496825F080031943916080F852
:100FE0003D40002180F83C10084670BD022070BDD5
:100FF000000001400004004000080040000C0040D8
:1010000000040140004001400018004010B50400F9
:1010100003D094F83D0010B107E0012010BD00207E
:1010200084F83C00204600F01FF8022084F83D00C0
:10103000211D206800F0CEFD012084F8460084F8D0
:101040003E0084F83F0084F8400084F8410084F8B2
:10105000420084F8430084F8440084F8450084F892
:101060003D00002010BD000008B500680B49884213
:1010700012D10B48016841F00201016000680022B2
:1010800000F00200009001211D20FFF78FFCBDE859
:1010900008401D20FFF77CBC08BD00000004004094
:1010A0004038024090F83D10012901D001207047DE
:1010B000022180F83D100168CA6842F00102CA604E
:1010C00000681149884214D0B0F1804F11D00F4907
:1010D00088420ED00E4988420BD00E49884208D073
:1010E0000D49884205D00D49884202D00C498842FA
:1010F00004D1816801F00701062903D0016841F09D
:101100000101016000207047000001400004004020
:1011100000080040000C0040000401400040014075
:101120000018004070B5044690F83C0000250128E6
:1011300017D0012684F83C60022084F83D00206826
:10114000826822F0770222F47F4282600868502889
:1011500038D00DDC20284FD005DC90B3102811D1F9
:101160004AE0022070BD302846D040280AD13BE03A
:1011700060282FD070280DD0B0F5805F03D0B0F577
:10118000005F12D0012584F83D60002084F83C0007
:10119000284670BDCB68D1E90121206800F07EFDB2
:1011A0002068816841F0770109E0CB68D1E901212D
:1011B000206800F073FD2068816841F480418160FF
:1011C000E1E719E0CA684968206800F079FD50211C
:1011D000206806E0CA684968206800F082FD602146
:1011E000206800F065FDCEE7CA684968206800F015
:1011F00067FD40212068F4E7226801461046F0E7C9
:10120000704770B50446006801694FF00005C94396
:10121000890715D4C168C943890711D4E91E016142
:1012200001202077206880698007204602D0FFF7E0
:10123000E7FF04E000F098F8204600F096F82577E4
:1012400020680169C943490717D4C168C9434907E0
:1012500013D46FF0040101610220207720688069B7
:1012600010F4407F204602D0FFF7CAFF04E000F0F0
:101270007BF8204600F079F8257720680169C9439A
:10128000090716D4C168C943090712D46FF00801D1
:101290000161042020772068C0698007204602D0C1
:1012A000FFF7AEFF04E000F05FF8204600F05DF8C5
:1012B000257720680169C943C90617D4C168C943A5
:1012C000C90613D46FF0100101610820207720684F
:1012D000C06910F4407F204602D0FFF791FF04E080
:1012E00000F042F8204600F040F8257720680169B8
:1012F000C943C90708D1C168C943C90704D1891EB8
:101300000161204600F032F820680169C9430906EE
:1013100009D4C168C943090605D46FF08001016191
:101320002046FFF729FE20680169C943490609D410
:10133000C168C943490605D46FF0400101612046E8
:1013400000F022F820680169C94389060BD4C168FE
:10135000C943890607D46FF0200101612046BDE82A
:101360007040FFF70ABE70BD70477047044988425D
:1013700004D10448016881F4005101607047000005
:10138000200000201408024070477047704700009A
:10139000F8B5016804460868CA684B6910F00F0F79
:1013A0004FF0000559D003F0010602F4907737435F
:1013B00065D0C10705D0D10503D5216C41F00101ED
:1013C0002164410705D5D90703D0216C41F0020102
:1013D0002164810705D5D90703D0216C41F00401B0
:1013E0002164010707D502F02001314303D0216CAD
:1013F00041F008012164216C00293AD0800604D50F
:10140000900602D5204600F0ADFC20684069216CB2
:10141000C0F38010090700D460B3204600F07BFCC5
:1014200020684069400621D52068143050E8001F2C
:1014300021F0400140E80012002AF5D1A06BA8B1CC
:101440006C490165A06BFFF788F8002811D0A06BEC
:10145000016D01B0BDE8F040084783060FD5930643
:101460000DD52046BDE8F84000F07CBC2046FFF7D3
:101470008DFFF8BD2046FFF789FF2564F8BD266B78
:101480002023012E79D1C60677D5D60675D50868F2
:10149000486800904869400640D5A16B08684068DC
:1014A0000004000CEAD0A28D8242E7D9E085C86929
:1014B000B0F5807F2DD020680C3050E8001F21F45B
:1014C000807140E80012002AF5D12068143050E8FD
:1014D000001F21F0010140E80012002AF5D1206828
:1014E000143050E8001F21F0400140E80012002AAB
:1014F000F5D184F83E30256320680C3050E8001F99
:1015000021F0100140E80012002AF5D1A06BFEF78F
:10151000DBFFA08DE18D401A81B229E0A08DE18D25
:10152000401A81B2E08D0028A8D00029A6D02068FA
:101530000C3050E8002F22F4907240E80026002E74
:10154000F5D12068143050E8002F22F0010240E865
:101550000026002EF5D184F83E30256320680C303B
:1015600050E8002F22F0100240E80023002BF5D1B4
:101570002046FFF70AFFF8BDFFE705062BD5150645
:1015800029D594F83D002128F5D1A068B0F5805FF9
:1015900001D12069B0B1206A411C21622168007824
:1015A0004860E08C401E0004000CE084E3D1206819
:1015B000C16821F08001C1602068C16841F040012C
:1015C000C160D8E7206A0088C0F308004860206A3C
:1015D000801C2062E5E74006CDD55006CBD5CA6811
:1015E000204622F04002CA6084F83D3000F09AF8AC
:1015F000C1E70000071D030870B5040004D094F88B
:101600003D00002510B106E0012070BD84F83C507B
:10161000204600F023F8242084F83D002068C168AB
:1016200021F40051C160204600F0FCFB20680169F4
:1016300021F4904101612068416921F02A01416152
:101640002068C16841F40051C1602564202084F8FD
:101650003D0084F83E00002070BD000010B586B04B
:10166000044614216846FEF7E3FD184920688842C5
:1016700029D117480021026842F010020260006878
:1016800000F01000059012481438026842F0010280
:101690000260006800F0010005904FF4C060009007
:1016A0000220CDE901010320039007200490694640
:1016B0000848FFF70FF8002211462520FFF776F9BA
:1016C0002520FFF765F906B010BD000000100140AD
:1016D000443802400000024090F83E30202B0ED1EA
:1016E00059B152B190F83C30012B08D0012380F859
:1016F0003C300023036300F01BBC01207047022034
:101700007047000010B5044600680549884202D1C0
:10171000204600F04FF82046BDE81040FFF738BEE5
:10172000001001407047FEE770B50168CA6842F0DA
:101730002002CA6001221A49FFF7CEFFFEF7B4FF6C
:101740001749184E0222C91C304600F08DF9144C7E
:101750007503E41C6068012808D00222214628464F
:1017600000F08CF9BDE87040FEF756BF0EA000F007
:1017700005FC00204FF48042606051030C4800F0EB
:10178000CAF807490222C91C304600F077F904491B
:101790000222C91C284600F071F900F007FC000085
:1017A00011000020044000085772697465000000B1
:1017B0000000010810B501220F49FFF78DFF0E4808
:1017C000401E421C017821B1012906D002290AD00D
:1017D0000CE01178012904D008E01178FF2905D127
:1017E0000221017010BD1178022901D00021F8E713
:1017F0000321017000F0DAFB1100002070B586B003
:1018000014216846FEF714FD15480024016841F0D4
:1018100004010160016801F004010591016841F0D3
:1018200080010160016801F080010591016841F0CB
:10183000010101600068012200F00100094E55031A
:10184000059029463046FFF73DF801200095CDE987
:101850000104694630460394FEF73CFF06B070BDB4
:10186000303802400008024010B586B00024194804
:101870000094019402940394049415490594016022
:1018800041F28731C0E9011442F2CF01C0E90314EB
:1018900080218161FFF7BAFB08B1FEF707FD4FF425
:1018A0008050009069460B48FFF73CFC08B1FEF7FA
:1018B000FDFC049404A907480594FFF75FFB08B1F9
:1018C000FEF7F4FC0348FFF7EDFB06B010BD000087
:1018D00000040040200000200C4810B50A490160B7
:1018E0004FF4E1314160002181600C22C160C0E908
:1018F00004128161C161FFF77FFE002803D0BDE8BB
:101900001040FEF7D3BC10BD00100140680000205D
:10191000FEE7FEE770472DE9F0410E460546174603
:101920001146304600F014F8FEF7BEFE0024A04633
:1019300008E02A68434631460220FEF777FE641C21
:101940002D1D361DBC42F4D3BDE8F041FEF764BE48
:101950002DE9F04387B000250E4604460595B0F109
:10196000006F01D3A00703D0012007B0BDE8F083CA
:10197000FEF79AFE134804EB86064CF25037844279
:1019800014D24FF001084FF00209B4420ED2206881
:10199000401C11D02046009500F016F802AA05A9B7
:1019A00082E801036846FEF7EBFD30B1FEF734FE36
:1019B0003846FEF761FDD8E7241D3846FEF75CFD8A
:1019C000E3E700000000FF1F1C49884201D200200D
:1019D00070471B49884201D201207047194988424B
:1019E00001D2022070471849884201D20320704773
:1019F0001649884201D2042070471549884201D215
:101A0000052070471349884201D2062070471249C9
:101A1000884201D2072070471049884201D208202D
:101A200070470F49884201D2092070470D4988420A
:101A300001D20A2070470B207047000000400008C8
:101A40000080000800C00008000001080000020833
:101A500000000408000006080000080800000A084A
:101A600000000C0800000E0810B5002303E010C8A9
:101A700041F823405B1C9342F9D310BD2DE9F04F90
:101A800087B04FF0000817460E460446CDF8148084
:101A9000B0F1006F38D3A00736D1FEF705FE1C4821
:101AA000254604EB87074CF25039844215D24FF09B
:101AB000010A4FF0020BBD420FD22868401C11D022
:101AC0002846CDF80080FFF77FFF02AA05A982E82B
:101AD000010C6846FEF754FD28B14846FEF7CCFCE1
:101AE00070B10FE02D1D4846FEF7C6FCE3E700236A
:101AF000214602203268FEF799FD18B9241D361DD3
:101B0000BC42F4D3FEF788FD07B0BDE8F08F0000BB
:101B10000000FF1F7047FEF7E1BE000030B593B034
:101B200030216846FEF784FB14210CA8FEF780FBE9
:101B30001C480025016841F080510160006800F0F8
:101B4000805011901848016841F48041016000689C
:101B5000022400F4804011900120009000040190C4
:101B60008001CDE9064008AA0420A82182E81300DC
:101B70000B906846FFF736F808B172B6FEE70CA97D
:101B80000F2081E831004FF4A0500F9010900521F4
:101B90000CA8FEF73DFF002801D072B6FEE713B097
:101BA00030BD000040380240007000400448016829
:101BB00041F47001016002490248803908607047B1
:101BC00088ED00E0000003080148FFF71ABB0000A1
:101BD00020000020F0B50268254C264D264E274FE8
:101BE000274B4FF0804CA04209D0604507D0A84257
:101BF00005D0B04203D0B84201D0984204D122F0BF
:101C0000700E4A6842EA0E02A0421BD0604519D00D
:101C1000A84217D0B04215D0B84213D0984211D084
:101C2000184DA8420ED0184DA8420BD0174DA8420F
:101C300008D0174DA84205D0164DA84202D0164D27
:101C4000A84203D122F44075CA682A434D6922F0A4
:101C500080022A4302608A68C2620A688262A042E5
:101C600001D0984201D10969016301214161F0BDB0
:101C7000000001400004004000080040000C00404B
:101C80000004014000400140004401400048014080
:101C900000180040001C00400020004010B584687F
:101CA00042EA032224F47F440A432243826010BDA7
:101CB000826822F070020A4342F007018160704797
:101CC00010B5036A046A24F001040462846924F0F4
:101CD000F00444EA021423F00A020A438461026217
:101CE00010BD10B5036A23F0100303628369046A10
:101CF00023F4704343EA023224F0A00343EA0111C3
:101D00008261016210BD10B5806B0021C185C18464
:101D1000FFF73CFB10BD01680C3151E8002F22F4A5
:101D2000907241E80023002BF5D10168143151E88D
:101D3000002F22F0010241E80023002BF5D1016BB6
:101D4000012909D101680C3151E8002F22F010025D
:101D500041E80023002BF5D1202180F83E1000211E
:101D60000163704708B590F83E10222901D0022087
:101D700008BD82684FF480539A4201D1016921B1B4
:101D8000816A9A421BD04AB10AE00268816A5268AD
:101D9000C2F308020A80816A891C08E0026972B1F4
:101DA0000268526802F07F020A70816A491C8162EF
:101DB000C18D491E0904090CC18503D019E00268D0
:101DC0005268F1E70168CA6822F02002CA6001681F
:101DD000CA6822F48072CA6001684A6922F001026E
:101DE0004A61202180F83E10016B012903D0FFF7E2
:101DF00089FC002008BD0021016301680C3151E815
:101E0000002F22F0100241E80023002BF5D10168D9
:101E10000A68D20602D50A6849680091818DFFF7E9
:101E2000B4FAE6E770B5044600680169E26821F497
:101E30004051114301612169A068E2690843616969
:101E4000114308432168CA6849F20C639A4302436C
:101E5000CA6020684169A26921F44071114341615F
:101E600031492068884202D03049884202D1FEF7C9
:101E700079FE01E0FEF766FEE26900231921642580
:101E80003226B2F5004F626828D0A0FB0101930F03
:101E90009200FEF795F90146B0FBF5F06FF01802DD
:101EA000504301EB800006EB0010B0FBF5F000F0B2
:101EB000F002B1FBF5F002EB0012B1FBF5F06FF0B0
:101EC0001803584301EB800006EB0010B0FBF5F05F
:101ED00000F00F0021681044886070BDA0FB010174
:101EE00092185B41FEF76CF90146B0FBF5F0020178
:101EF000B1FBF5F06FF01803584301EB800006EBDF
:101F0000C000B0FBF5F000F0F80002EB4002B1FBBE
:101F1000F5F0584301EB800006EBC000B0FBF5F094
:101F200000F00700D6E70000001001400014014057
:101F300081628285C28500210164222280F83E20D0
:101F400080F83C10016921B10168CA6842F48072CE
:101F5000CA6001684A6942F001024A610068C168CA
:101F600041F02001C1600020704700000148FFF7E8
:101F70000FBA000068000020FEE70000014A024995
:101F800000F035B8112003081C0000200907090ED5
:101F9000002804DB00F1E02080F80014704700F016
:101FA0000F0000F1E02080F8141D7047BFF34F8F41
:101FB00005480168054A01F4E06111430160BFF37F
:101FC0004F8F00BFFDE700000CED00E00400FA05B4
:101FD00002E008C8121F08C1002AFAD170477047F2
:101FE000002001E001C1121F002AFBD170472DE93A
:101FF000F04116460F460446002503E03946B04737
:10200000641C6D1C20780028F8D12846BDE8F081BA
:1020100003490A685206FCD5C2B24A607047000004
:10202000001001400A4909480860FEF75FFCFFF70D
:1020300075FDFFF7E3FBFFF717FCFFF74DFC0548C5
:10204000FFF772FB04A0FFF799FFFBE7000003080E
:1020500008ED00E06800002054686973206973206F
:10206000313233415050212121210A00000000006B
:102070000000000001020304060708090000000038
:1020800001020304A4200308000000202000000037
:10209000D01F0308C420030820000020B004000063
:1020A000E01F030801000000100000000000000015
:1020B0000024F40000000000000000000000000008
:0420C000000000001C
:040000050803018962
:00000001FF
